:020000040800F2
:10000000006901208D02000879330008C101000851
:10001000353300082D0D00081D56000800000000B3
:10002000000000000000000000000000D5010008F2
:10003000591600080000000029020008BD3C000815
:10004000A7020008A7020008A7020008A7020008EC
:10005000A7020008A7020008A31D0008531E0008FD
:10006000631E0008731E0008831E0008A702000814
:10007000A7020008A70200085D1400086114000828
:10008000A7020008A7020008A7020008A7020008AC
:10009000A7020008A7020008A7020008991E00088E
:1000A000A7020008A7020008A7020008A70200088C
:1000B000A7020008393D0008A7020008A7020008AF
:1000C000A7020008A7020008A7020008A70200086C
:1000D000A702000845420008A7020008A94200083C
:1000E000BB1D0008A7020008A7020008A70200081D
:1000F000A7020008A7020008A7020008A70200083C
:10010000A7020008A7020008A7020008A70200082B
:10011000A7020008A7020008A7020008A70200081B
:10012000A7020008A7020008A7020008A70200080B
:10013000A7020008DD170008A7020008A7020008B0
:10014000A7020008A7020008A7020008F53300086C
:10015000A7020008A7020008A7020008A7020008DB
:10016000A7020008A7020008A7020008A7020008CB
:10017000A7020008A7020008A7020008A7020008BB
:10018000A7020008A7020008A7020008A7020008AB
:10019000A7020008A7020008A7020008A70200089B
:1001A0000000000000000000A7020008DFF80CD0EB
:1001B00000F0E4FC0048004789B70008006901200E
:1001C0001EF0040F0CBFEFF30880EFF309800DF071
:1001D0002DBC00002A4B19680868B0E8F04F80F386
:1001E0000988BFF36F8F4FF0000080F311887047CC
:1001F0000000000006480068006880F3088862B6C6
:1002000061B6BFF34F8FBFF36F8F00DF00BF00BF3A
:1002100008ED00E0DFF80C00016841F470010160B6
:10022000704700BF88ED00E0EFF30980BFF36F8FE8
:10023000134B1A681EF0100F08BF20ED108A20E93A
:10024000F04F106008B44FF0500080F31188BFF3F6
:100250004F8FBFF36F8F14F013F84FF0000080F34F
:10026000118808BC19680868B0E8F04F1EF0100F3C
:1002700008BFB0EC108A80F30988BFF36F8F704716
:1002800078020020EFF305807047000006488047A1
:1002900006480047FEE7FEE7FEE7FEE7FEE7FEE76B
:1002A000FEE7FEE7FEE7FEE7DD3C0008AD010008E3
:1002B0002DE9F05F0546002092469B46884606469B
:1002C000814640241BE0284641464746224600F02E
:1002D000C2FA53465A46C01A914110D311461846E5
:1002E000224600F0A9FA2D1A67EB01084F46224674
:1002F0000120002100F0A0FA17EB00094E41201E5A
:10030000A4F10104DFDC484631462A464346BDE8F5
:10031000F09F2DE9F0410024061B254671F10006EF
:1003200005DA01240027D0EB070067EB0101161E58
:1003300073F1000605DA0027D2EB0702012567EB0F
:100340000303FFF7B5FF86460E4617469C46AC42B0
:1003500004D00025D0EB050E65EB010624B100208A
:10036000D2EB000760EB030C704631463A46634619
:10037000BDE8F08110B5431A934209D2831888185A
:1003800003E010F8011D03F8011D521EF9D210BD43
:1003900040EA01039B0703D009E008C9121F08C007
:1003A000042AFAD203E011F8013B00F8013B521E87
:1003B000F9D210BDD2B201E000F8012B491EFBD2E8
:1003C00070470022F6E710B513460A460446194660
:1003D000FFF7F0FF204610BD30B50446002003466D
:1003E00000E05B1C934203D2E05CCD5C401BF8D084
:1003F00030BD2DE9FE4F804681EA0300C00F0C4658
:10040000009021F0004123F00045B8EB0200A94123
:1004100005D24046214690461C460B46024623F034
:100420000040104347D0270DC7F30A00C3F30A5119
:100430000290401A019040286BDAC3F3130040F495
:10044000801B0098924620B10023D2EB030A63EB95
:100450000B0B01985946C0F14002504600F0ECF9F0
:1004600006460D4650465946019A00F004FA10EB34
:1004700008006141002487EA115284EAE7731A43B5
:1004800040D0009A62B3019A012A4FEA075215DC64
:10049000001B61EB02014FF0004202EA0752CDE976
:1004A0000042001C41F5801132462B4600F059FAFB
:1004B00003B0BDE8F08F40462146F9E7001B61EB31
:1004C0000201001C41F5801300185B412018A2F5C1
:1004D000001747EB030140EAD570B6196D4111E0F2
:1004E0006D084FEA360645EAC0754FEA0752001B11
:1004F00061EB0201001C41F5801149084FEA300010
:100500000019514132462B4603B0BDE8F04F00F0D0
:1005100019BA0098012240000023D0EB020263EBDD
:10052000E073009821464FEAE074B8EB000061EBFD
:100530000401E9E783F000435BE781F0004158E7FD
:100540002DE9FE4F81EA030404F0004421F000414C
:1005500000944FF0000B23F0004350EA01045ED0FA
:1005600052EA03045BD0C3F30A54C1F30A552C4486
:10057000A4F2F3340194A0FB0254C1F3130141F43B
:100580008011C3F3130343F4801301FB024400FB07
:10059000034E840A970A44EA815447EA8357A4FB2E
:1005A000076802958D0A05FB07854FEA932C04FB2B
:1005B0000C542705029D4FEA065847EA1637B5EB5B
:1005C00008056EEB070C870E920E47EA811742EA88
:1005D0008312A7FB0201B6EB0B0164EB00042B0DA9
:1005E00043EA0C335E1844EB1C50DA465146E7FBF5
:1005F0000201C5F313044FEA0B3343EA14534FEAE5
:100600000432019C43EA0603A4F10C040294009C0A
:10061000CDE900B400F0A5F903B0BDE8F08F0020EB
:100620000146F9E72DE9F04D81EA030404F0004B9F
:1006300021F0004514464FF0000A23F0004150EA33
:10064000050220D054EA01021DD0C5F30A57024624
:10065000C5F31303C1F31300C1F30A5640F4801528
:1006600043F48013A7EB0608101BD64608F2FD38AA
:1006700073EB050002D308F1010801E092185B4119
:10068000B8F1000F03DA00200146BDE8F08D00202C
:100690004FF48011064684460EE0171B73EB0507E6
:1006A00005D3121B63EB050306434CEA010C490812
:1006B0004FEA300092185B4150EA0107EDD152EA4F
:1006C000030012D082EA040083EA0501084305D042
:1006D000101BAB4106D20122002306E000224FF09E
:1006E000004302E06FF0010253101AEB06004CEBDE
:1006F000085110EB0A0041EB0B01BDE8F04D00F092
:1007000021B90EB5C10F80EAE0700844CA07002184
:1007100040F233438DE80E000A460B4600F021F903
:1007200003B000BD0EB540F2334102910021CDE986
:1007300000110A460B4600F014F903B000BD70B575
:10074000C1F30A5201F000450024C1F3130140F245
:10075000FF3341F480119A4201DA002070BD40F26B
:1007600033439A42A2F2334203DC524200F073F860
:1007700000E090402C43F1D0404270BDC1F30A52DA
:1007800010B5C1F3130140F2FF3341F480119A42D6
:1007900001DA002010BD40F233439A42A2F2334204
:1007A00003DC524200F057F810BD904010BD00F03D
:1007B000004230F000400AD0C10D01F56071C0F375
:1007C000160042EA0151C208400711437047002059
:1007D0000146704701F0004330B421F0004150EA77
:1007E000010206D00A0DA2F56072C1F31301002ABE
:1007F00002DC30BC00207047440F44EAC104C10051
:10080000E01830BC00EBC25000F047B830B50B46E2
:10081000014600202022012409E021FA02F59D4230
:1008200005D303FA02F5491B04FA02F52844151E04
:10083000A2F10102F1DC30BD202A04DB203A00FAEB
:1008400002F1002070479140C2F1200320FA03F327
:10085000194390407047202A04DB203A21FA02F025
:100860000021704721FA02F3D040C2F120029140EA
:10087000084319467047202A06DBCB17203A41FA75
:1008800002F043EAE07306E041FA02F3D040C2F11D
:10089000200291400843194670470029A8BF7047BD
:1008A000401C490008BF20F00100704710B4B0FAA6
:1008B00080FC00FA0CF050EA010404BF10BC704741
:1008C00049B1CCF1200421FA04F411FA0CF118BF5B
:1008D000012121430843A3EB0C01CB1D4FEA00612A
:1008E0004FEA102042BF002010BC704700EBC350FD
:1008F00010440029A4BF10BC7047401C490008BF29
:1009000020F0010010BC704710B541000CD0C0F3BE
:10091000C751962908DC7E2909DC06DB410204D098
:1009200000F0004040F07E5010BD002010BDC1F12D
:100930009604C4F1200100FA01F1E040FFF7ADFF99
:10094000A04010BD10B5141E73F1000408DA401C5D
:1009500041F1000192185B411A4301D120F00100DE
:1009600010BD2DE9F04D92469B4611B1B1FA81F2CE
:1009700002E0B0FA80F220329046FFF75DFF0446B5
:100980000F4640EA0A0041EA0B0153465A46084323
:1009900013D0114653EA010019D0C8F14002504665
:1009A000FFF759FF05460E46504659464246FFF7A7
:1009B00043FF084305D0012004E020463946BDE846
:1009C000F08D0020054346EAE0762C4337430A9831
:1009D0006305E40AA0EB08000022FD0A44EA47543C
:1009E0000A3002D500200146E9E7010510196941E6
:1009F000DDE9084500196941BDE8F04DA2E770B591
:100A000021F0004303430CD0C1F30A550024D5EB79
:100A1000040564EB0403D617AD1AB34102DB0020D2
:100A2000014670BD201841EB025170BD2DE9F04D1B
:100A300000231A461B1A8A4103DB00200146BDE849
:100A4000F08DC1F30A52C1F3130141F480154FF048
:100A5000000BD10702D100186D41521E0027044639
:100A600040F2FF11384601EB620A3E4680460246DC
:100A700000204FF48011FFF7EEFEC2197141BB1840
:100A800046EB0100B4EB030C75EB000C04D3E41A45
:100A900065EB000517460E46241908F101006D416B
:100AA00080463428E3DDF91946EB0600091BA8410E
:100AB00003D24FF0FF32134601E0002213461BEB36
:100AC000070046EB0A51BDE8F04DFFF73BBFC1F30D
:100AD0000A52C1F3130140F2FF3341F480119A42EC
:100AE00002DA00200146704740F233439A42A2F2F4
:100AF000334202DC5242FFF7AEBEFFF79DBE10B597
:100B000000F0004420F00040C20DC0F3160040F495
:100B100000007F2A07DA7D2A00DA7D22763A00FA81
:100B200002F1002008E0962A09DCA2F1760100FA21
:100B300001F1C2F19602D040FFF7AFFE01E0963A14
:100B40009040002C00D0404210BD000030B5041E83
:100B500071F1000404DB4FF00044404264EB0101FA
:100B6000141E73F1000405DB1C464FF00043524293
:100B700063EB0403994208BF904230BD064C074D19
:100B800006E0E06840F0010394E80700984710345D
:100B9000AC42F6D3FFF70EFBC04D0108E04D010853
:100BA00070B58C1810F8015B15F0070301D110F82F
:100BB000013B2A1106D110F8012B03E010F8016B5C
:100BC00001F8016B5B1EF9D12B0705D40023521EDF
:100BD0000DD401F8013BFAE710F8013BCB1A921C47
:100BE00003E013F8015B01F8015B521EF9D5A14245
:100BF000D8D3002070BD0029816802D041F00101E6
:100C000001E021F00101816070470000084B10B540
:100C1000D3F8042307490A40D0E900142143D0E95E
:100C20000240044321431143C3F8041310BD0000E4
:100C300000200140E030FCFF0029816802D041F42F
:100C4000807101E021F48071816070470029816822
:100C500002D041F4007101E021F40071816070471D
:100C600030B542680F4B0C791A400B6842EA0422F7
:100C70001343436082680C4B4D791A40D1E903431A
:100C800023438C6844EA4504234313438360C26AC8
:100C9000097D22F47002491EC9B242EA0151C162C3
:100CA00030BD0000FFFEFFFCFDF7FFC070B507245C
:100CB00009290AD9C568A1F10A0606EB4606B4401F
:100CC000A543B3401D43C56007E0056901EB41063C
:100CD000B440A543B3401D4305611F23072A09D231
:100CE000446B521E02EB820293409C4391400C43A2
:100CF000446370BD0D2A09D2046BD21F02EB82023D
:100D000093409C4391400C43046370BDC46A0D3A08
:100D100002EB820293409C4391400C43C46270BD3D
:100D2000816841F08041816070470000002101200E
:100D30000BF006FB002102200BF002FB0021032038
:100D40000BF0FEFA002104200BF0FAFAAC2102A00D
:100D50000EF0AAFBFEE700002E2E5C4841524457DD
:100D60004152455C7372635C6E7669632E6300006A
:100D70000848F6EE000A9FED080AC0ED000AC0ED33
:100D8000010A80ED020A0549C0ED030A012008802E
:100D900070470000380C00209A99193ECE000020C0
:100DA00010B50A460C0601F07F0303EB830100EB4C
:100DB000C10102D501F58E7101E001F55D71D20925
:100DC0000B704A7004F02AFA002010BD0A4610B5D4
:100DD000090602F07F0306D503EB830100EBC10196
:100DE00001F58E7105E002EB820100EBC10101F516
:100DF0005D7100248C700B70D2094A7004F0F5F913
:100E0000002010BD70B50C460E0601F07F0505EB05
:100E1000850100EBC10102D501F58E7101E001F5FC
:100E20005D71E4090D704C708A60CB7000D0CD808C
:100E3000022B01D100220A7104F0AEF9002070BD2E
:100E400010B501F07F0404EB840100EBC101C1F88F
:100E50008833C1F880230023C1F88C3381F87533BF
:100E600081F87443C37801F55D71012B00D10A61EB
:100E700014F0FF0F03D004F003FA002010BD04F0BB
:100E800021F9FAE70069002261F30A1201681143AF
:100E9000016070470A4610B5090602F07F0306D5C7
:100EA00003EB830100EBC10101F58E7105E002EB5C
:100EB000820100EBC10101F55D7101248C700B70A2
:100EC000D2094A7004F0C4F9002010BD70B511F0C9
:100ED0007F0404EB840100EBC1014FF0010581F8B0
:100EE0001D5181F81C41C1F82821C1F82C2101F5C0
:100EF0008E714FF00002C1E9053203D004F0C0F951
:100F0000002070BD04F0DEF8FAE700007FB5064669
:100F100004F0BCF8684602F0CFFAF068019DC168A1
:100F200021F47054C460304604F0A6FA002103286E
:100F30000DD00120B0704020B0803548354928449C
:100F4000884209D224F4705101F5605156E0B17025
:100F50004FF40070B0802CE02F483049284488427C
:100F600004D224F4705101F5505147E02C482D492A
:100F70002844884204D224F4705101F540513DE0E8
:100F800029482A492844884204D224F4705101F5A2
:100F9000305133E0264827492844884204D224F4BB
:100FA000705101F5205129E0234824492844884202
:100FB00004D224F4705101F510511FE0204821495A
:100FC0002844884204D224F4705101F5005115E000
:100FD0001D481E492844884204D224F4705101F56A
:100FE000E0510BE01A481B492844884224F4705110
:100FF00002D201F5C05101E001F5A051F068C160D5
:10100000F1684FF40050486104B0012070BD000049
:10101000401E1BFF40420F0000DC0BFFE0C8100029
:101020002013FBFE20D61300003DE7FE006A1800E7
:1010300000D3CEFE40771B00C05BB3FEC091210001
:1010400000CA91FE40AC2700C01D6AFE40E133009B
:10105000803C36FEE09C41002DE9F041064600252B
:1010600004F02DFA074650E0F8074CD03069EAB298
:101070000169436BD34006EB820203F001039269DE
:1010800041EAC31194680C40E1071AD00124426B75
:1010900004FA05F18A43426306EB850080698460A7
:1010A0001C48E9B20068426830469047F078012851
:1010B00007D135B996F81101042802D1304604F061
:1010C00059F8200704D506EB850008248069846060
:1010D000E00604D506EB8500102480698460600674
:1010E00004D506EB8500402480698460A00704D500
:1010F00006EB8500022480698460200603D529461A
:10110000304600F061F97F086D1C002FACD1012042
:10111000BDE8F081100300202DE9F04106460024CF
:1011200004F0D3F90746DFF8988043E0F8073FD092
:10113000E1B2304604F0CFF90546C00725D006EBF2
:1011400084000125416D8D60F17801290CD1406D3D
:10115000016904EB840006EBC000C1F31201D0F872
:101160007C23511AC0F88C13D8F80000E1B2026851
:1011700030469047F078012807D134B996F811012C
:10118000052802D1304603F0F5FFA80704D506EB89
:1011900084000225406D8560280709D5D8F8000035
:1011A00081683046884706EB84010820496D8860D5
:1011B0007F08641C002FB9D10120BDE8F081000038
:1011C0001003002070B50646C068816921F0100147
:1011D0008161F068056A05F00F0000EB800006EB06
:1011E000C004C5F3434004F55D74072821D2DFE84D
:1011F00000F0202004202020150047F6F070054262
:1012000017D0C5F30A152A463046E16804F06BF999
:10121000E0682844E060A069284409E0082206F25A
:10122000CC51304604F05FF9A069C5F30A110844B7
:10123000A061F068816941F010018161012070BDF9
:1012400038B5044600208DF8000094F812018DF89E
:101250000000154800684169204688472069806879
:10126000E2684FF400615161A17AD1B1C00718D092
:1012700094F81501012814D19DF80000032810D11D
:10128000D4F80C01016841F001010160D4F80C01AF
:10129000016841F0030101600448016841F0060162
:1012A0000160012038BD00001003002010ED00E0B7
:1012B00070B50446006900250126416821F001014E
:1012C00041602946204604F0B7F80020FF2106E0DF
:1012D00004EB800293699960526D9160401C6278C2
:1012E0008242F5D821694FF0FF3088612846216994
:1012F00066F30F0066F31F40C861216945F00B00DB
:101300004861216945F00B0008612069016821F4FA
:10131000FE610160204603F02DFFE1684FF480502C
:10132000486103480068016920468847012070BD74
:101330001003002070B5044604F0E6F801220023F3
:1013400084F8122184F814311946402511E000BFB9
:1013500001EB810004EBC00080F81D2180F81C1116
:10136000A0F8221180F81F31C0E94953491CC0F888
:10137000303160788842EBD8002110E001EB810029
:1013800004EBC00282F8753382F87413A2F87A1362
:1013900082F87733C2E9DF53491CC2F8883360789A
:1013A0008842EBD8204603F069FE204603F062FD38
:1013B0000021204604F008F9204603F09BFD20465A
:1013C000BDE8704004F014B82DE9F0470D4606461C
:1013D00001EB850006EBC004D4E94C01421AD4F8B5
:1013E000240104F58E74904200D2024606EB850972
:1013F000D21CD9F818009708806923E0A0EB0108F7
:10140000A068404500D2804608F1030087081FFA13
:1014100088F3EAB23046E16804F0EBF8E16801EBEA
:101420000800E060A1694144A161D9F81800806911
:1014300062698A4206D1217801228A4031694B6B68
:1014400093434B6380B2B84205D9D4E90501814288
:1014500001D20028D2D10120BDE8F08712F03CB8BB
:1014600070470000074A904201D2074801E0054852
:101470001038064A8B0001EA020101D5C1607047AD
:101480008160704710640240006002407D0F7D0F54
:101490000029016802D041F0010101E021F00101C1
:1014A000016070472DE9F043016821F001010160FE
:1014B0000021016041608160C160016121214161C1
:1014C0003C493C4A3D251039904202D18D60BDE82F
:1014D000F083384A4FF474661832904201D18E601E
:1014E000F5E7344A4FF474173032904201D18F60DF
:1014F000EDE7304A4FF0746C4832904202D1C1F8A7
:1015000008C0E4E72B4B2C4A6033984201D1CA60F3
:10151000DDE7284C294B7834A04201D1CB60D6E7D7
:10152000DFF89080264C08F19008404501D1CC604E
:10153000CDE7DFF880804FF03D5908F1A80840451D
:1015400002D1C1F80C90C2E71E49DFF87880083953
:10155000404501D10D60BAE71A4D1835A84201D1B6
:101560000E60B4E7174D3035A84201D10F60AEE7E9
:10157000144D4835A84202D1C1F800C0A7E7114D6B
:1015800010496035091FA84201D10A609FE70D4A42
:101590007832904201D10B6099E70A4A903290422A
:1015A00001D10C6093E7074AA83290428FD1C1F86D
:1015B00000908CE7106002403D000020400F0020AA
:1015C00000003D2010640240014600200968C90760
:1015D00000D0012070470B0607D5436912B143F0D4
:1015E000800301E023F080034361802908D0002AB2
:1015F000026801F01E0101D00A4300E08A43026044
:101600007047000030B50368124ACC6813400A687E
:101610002243D1E905452C432243CC6922430C6A7D
:1016200022434C6A22438C6A22434C6B22438C6BCC
:1016300022431A430260426922F00703D1E90B24D6
:1016400022431A4342610A6942604A68826089689B
:10165000C16030BD3F801CF0704700000149486107
:101660007047000000900240044A0029D16901D06F
:10167000014300E08143D1617047000000900240C7
:1016800005490028886902D040F0020001E020F0FE
:10169000020088617047000000900240F0B5124ED1
:1016A00000244FF0004744F2F45C551E706013E0D4
:1016B00000EB44131F60C4EBC41E0EEB4E0E01EB97
:1016C0008E0EC3E901CEAC4204D203F1200EC3F862
:1016D0000CE000E0D860641C9442E9D30349C86080
:1016E0000348B060F0BD0000BC0000200090024044
:1016F0003808002005490028886902D040F40050CD
:1017000001E020F400508861704700000090024022
:10171000F0B50F4C00234FF48016551E206011E0E9
:1017200000EB43142660C3EBC31707EB470701EB3D
:101730008707A760AB4203D204F12007E76000E00F
:10174000E0605B1C9342EBD302490861F0BD0000EE
:10175000BC0000200090024002680A43026070470B
:1017600010B501214C06204601F056FE2046BDE88A
:101770001040002101F050BE01B581B001980090E9
:10178000002801D0401EFAE70CBD00000248816924
:1017900041F4801181617047009002400148006867
:1017A00080687047BC00002002680021002A08DB26
:1017B0000268120405D40268D20502D50068C0F39D
:1017C0000D41084670470000034900200968C90719
:1017D00000D00120704700000090024010B5094C75
:1017E00002E000BF09F0D8FE2068FFF7DDFF002807
:1017F000F8D14020FFF732FFBDE810404FF48030B1
:10180000FFF72CBFC00000202DE9F04188B0002771
:101810007F4E0097044605973069884620F01C05E6
:1018200001A801F049FE7B4902987B4A014491429C
:1018300002D245F0080516E07849794A0144914200
:1018400002D245F00C050EE07649774A01449142F8
:1018500009D3764908447649884202D245F0040506
:1018600001E045F0100535614FF40042002140468B
:1018700000F06CFA00282DD06E48FFF77DFF20683D
:10188000B0B36D4D05980121401C0590404600F015
:1018900085F9400702D40598A842F3D30598A842D9
:1018A00017D04FF4805200214046059700F04EFAC1
:1018B00000280FD005980121401C0590404600F0FB
:1018C0006DF9800602D40598A842F3D30598A84282
:1018D00003D1002008B0BDE8F0811F2140460597E4
:1018E00000F05CF9C10604D54FF40061216201E00B
:1018F00008E02762400701D5676113E04FF480409C
:1019000060610FE0206A6169C00840EA510082B25C
:101910000021404600F01AFA0028DBD06FF07F402B
:10192000FFF72AFF316845480140D4E9010210431E
:10193000E26854F8103F1A43104362681043A268EB
:101940001043E26810432269104362691043A269A0
:101950001043E2691043226A1043626A104308434D
:101960003060F4E90A010843D4E902121143084344
:101970002169084361690843A1690843E169084393
:101980007060206AB060606AF060B1694FF64170C3
:101990000140D4E90B021043238D626B42EA0342FB
:1019A0001043A26B1043E26B10430843B061D4E9CB
:1019B00010010843F06122498A6922480240D4E9B3
:1019C00012031843D4E914352B431843A36D18436D
:1019D000E36D1843236E1843636E1843A36E1843D8
:1019E00010438861D4E91B021043626F54F8783FBA
:1019F0001A431043626840EA8200A268104340F430
:101A000000000860086840F080000860012061E77D
:101A10000080024000D3CEFEC0E1E40040F1E9FDC9
:101A200040787D0100796CFC005A6202001F0AFABE
:101A300080F0FA02FFFF0F00FFFF04000F8120FF7C
:101A400000900240233FDEF8054B8A881844026468
:101A50000A78D1F8011042EA012141647047000080
:101A60000080024010B5B0B001214FF0606001F07D
:101A7000C7FCFFF775FE00F0E9F800BFFFF7A4FE12
:101A80000128FBD0684600F0FAF801200090002001
:101A90004FF40071CDE90A10090407901190CDE9C7
:101AA00020010E90149013900A1115902590269005
:101AB00023920420CDE9280180032A9080012B90F5
:101AC00040122C9040002E9000216846FFF79CFEAB
:101AD000C4B2012C03D101210248FFF7C5FD30B08B
:101AE000204610BD4000010005490028086802D0CA
:101AF00040F0040001E020F004000860704700009E
:101B00000080024005490028086802D040F0080023
:101B100001E020F0080008607047000000800240EB
:101B200010B5094C002021680AF050FC00206168C3
:101B30000AF04CFC0020A1680AF048FCE168BDE80E
:101B4000104000200AF042BC6000002070B5A021C7
:101B500000200AF047FC104CA021206000200AF071
:101B600041FC41F6C4556060294600200AF03AFC69
:101B7000A060294600200AF035FCE060216831B100
:101B8000616821B1A16811B108B1002070BDFFF7F3
:101B9000C7FF012070BD00006000002018B50022C2
:101BA0000092124A13694FF6FF7403F01C0304EA13
:101BB000C02018434FF4F86303EA8111014321F078
:101BC000020040F00100106109480099491C009191
:101BD0001169C90702D000998142F6D30099814268
:101BE00001D1002018BD506980B218BD00800240AC
:101BF000FFFF040030B5134C00231A4621680D681E
:101C0000002D0BDA104913464C69240602D58024B6
:101C10004C618B6002604260826030BD0D682D04B3
:101C20000AD40D68ED0507D50D68AD0504D50A6821
:101C3000C2F30D438A681B1FCD6825600360C0E9AD
:101C4000012130BDC0000020009002400248016820
:101C500041F00101016070470090024000B5012091
:101C6000FFF750FFFFF792FD0120FFF73DFF012036
:101C7000FFF740FD01205DF804EBFFF701BD0121F6
:101C800001600021416081604FF48042C160C0E981
:101C90000412D2108161C0E9071241628162C162FF
:101CA0000163416340228163C0E90F122022C0E931
:101CB0001121C1640165416581658022C165C0E96A
:101CC00018128166C16601674167D2048167C0E965
:101CD0001F125210C0E921211311C0E92331C0F8AD
:101CE0009410C0F89810C0F89C10C0E92812521245
:101CF000C0F8A8209201C0F8AC205212C0E92C21F3
:101D0000C0F8B810704700000E4A11680B68002B2D
:101D100001DA00207047C0F30C004860086840F00A
:101D200040500860086840F0004008600648436979
:101D30005B0703D50423436100234360C868106038
:101D400001207047BC0000200090024038B50023FD
:101D50000093114B1C694FF6FF7504F01C0405EA53
:101D6000C02020434FF4F86404EA8111014341F09C
:101D700003005A61186109480099491C00911969CA
:101D8000C90702D000998142F6D30099814201D15E
:101D9000002038BD012038BD00800240FFFF040054
:101DA000704710B5012000F0B1F8FFF7F9FF10BD42
:101DB0007047704770477047704710B54FF48064A4
:101DC000204600F0A9F8012804D1204600F09EF832
:101DD000FFF7EEFF4FF40064204600F09DF8012865
:101DE00004D1204600F092F8FFF7E3FF4FF480544F
:101DF000204600F091F8012804D1204600F086F832
:101E0000FFF7D8FF4FF40054204600F085F8012872
:101E100004D1204600F07AF8FFF7CDFF4FF480445C
:101E2000204600F079F8012804D1204600F06EF831
:101E3000FFF7C2FF4FF40044204600F06DF8012880
:101E400004D1204600F062F800F001F810BD7047A0
:101E5000704710B5022000F059F8FFF7F9FF10BDE8
:101E6000704710B5042000F051F8FFF7F9FF10BDDE
:101E7000704710B5082000F049F8FFF7F9FF10BDD2
:101E8000704710B5102000F041F8FFF7F9FF10BDC2
:101E9000704770477047704710B5202000F03CF83D
:101EA000012804D1202000F031F8FFF7F1FF402095
:101EB00000F032F8012804D1402000F027F8FFF7A5
:101EC000E8FF802000F028F8012804D1802000F0ED
:101ED0001DF8FFF7DFFF4FF48074204600F01CF878
:101EE000012804D1204600F011F8FFF7D4FF4FF489
:101EF0000074204600F010F8012804D1204600F0BC
:101F000005F800F001F810BD7047000001490860B5
:101F100070470000143C0140034A0146002012684B
:101F20000A4200D001207047143C014005490028B6
:101F3000086802D040F4806001E020F4806008600E
:101F400070470000003C024070B50646002529B1EC
:101F5000012927D0022928D04FF4407500F080F8DD
:101F600009281ED1124C206820F44070206020689F
:101F700028432060206820F0F8002060206846F0A8
:101F8000020108432060206840F48030206000F0A7
:101F900067F8216821F002012160216821F0F80131
:101FA000216070BD4FF48075D8E74FF40075D5E718
:101FB000103C02400D4909200A68D20301D50120D6
:101FC00070470A68D20601D5062070470A68D20514
:101FD00001D5022070470A6812F0EF0F01D00720E8
:101FE000704709688907FBD5082070470C3C024000
:101FF0000248016841F0004101607047103C024016
:1020000070B50D46064600F02BF8092813D10A4C8E
:10201000206820F440702060206840F40070206048
:10202000206840F001002060356000F019F8216858
:1020300021F00101216070BD103C0240054800689C
:10204000002805DA034804490C380160034901609F
:1020500070470000103C024023016745AB89EFCD7B
:1020600008B509208DF80000FFF7A4FF8DF80000E7
:102070009DF800000128F7D09DF8000008BDF0B5DC
:102080000023012403270D6804FA03F2154095424A
:1020900042D1D0F800C05E0007FA06F52CEA050C24
:1020A000C0F800C091F804C0D0F800E00CFA06FCBB
:1020B0004CEA0E0CC0F800C091F804C0BCF1010F4E
:1020C00002D0BCF1020F1FD1D0F808C02CEA050CD9
:1020D000C0F808C091F805C0D0F808E00CFA06FC7A
:1020E0004CEA0E0CC0F808C0D0F804C02CEA020C70
:1020F000C0F804C0426891F806C00CFA03FC1FFA4D
:102100008CFC42EA0C024260C268AA43C260CA79EF
:10211000C568B2402A43C2605B1C102BB3D3F0BD2C
:102120004B07DB0E9A40C90810B500EB8100016A2D
:102130000F249C40A1430162016A1143016210BD5A
:10214000418370470183704700EE901A30B5F8EE76
:10215000E00A90ED001A404C61EE200AB0EEC01A81
:10216000FDEEE00A10EE903A00EE903AF8EEE00A4A
:10217000C0ED070AD0ED011AF0EEE10A10EE902A48
:10218000A24229DB11EE102AA24225DB02EE101A30
:10219000D0ED050AB8EEC22A61EE821A41EE800A3D
:1021A000C0ED050AD0ED061AB1EE612AF4EEC20ABE
:1021B000F1EE10FA02D2F0EE420A06E0F4EEE10A85
:1021C000F1EE10FA01DDF0EE610AC0ED050AFDEE58
:1021D000E00A10EE902A00E0002200EE902AF8EECD
:1021E000E00AC0ED080AD0ED020AF0EEE01A11EEA6
:1021F000905AA54225DB11EE105AA54221DB01EED3
:10220000101AD0ED031AB8EEC11A71EE611A81EE00
:10221000801A90ED040A30EE010AB6EE001A20EEA4
:10222000010A01EE101AB8EEC11A80ED031A80ED12
:10223000040A20EE800ABDEEC00A10EE101A09B2A0
:1022400000E0002100EE101AB8EEC00A80ED090A85
:102250009818084430BD000095BFD633F0B4194932
:102260000A78002A2CD1CA680026B2F5007F00D176
:10227000CE60D1E902329A4222D002D9C2F500736F
:1022800001E0A3EB02031C464FF001070B61402B5A
:1022900095B205D940234032403CC1E9032405E012
:1022A0002244C1E90326A3B2402B06D00F70064991
:1022B0004A19F0BC8121FEF709BE02220A70F6E736
:1022C000F0BC7047280300204086002000290188C8
:1022D00002D041F4806101E021F480610180704707
:1022E000C943818270470029018802D041F0010171
:1022F00001E021F001010180704700000D4910B597
:10230000884202D101214C050AE00B49884202D1E2
:1023100001218C0504E0094988420AD10121CC053C
:10232000204601F09DF82046BDE81040002101F054
:1023300097B810BD0054004000580040005C0040B9
:102340000029018802D041F4807101E021F48071FC
:10235000018070470029018802D041F4007101E03A
:1023600021F40071018070470CB5024600200092F4
:102370000A0F21F07F41019202D0009A143202E04C
:10238000009A090C1832009212680A4200D001200B
:102390000CBD00007FB5044680880D4620F03F0646
:1023A000684601F089F827490298B0FBF1F189B23B
:1023B0000E43A680228822F001022280224B2A6846
:1023C0009A421BD85200B0FBF2F080B2042800D22F
:1023D0000420491C2184A083208840F00100208033
:1023E00021884FF6F5300140A8886A8910430843D8
:1023F0002080A8892989084320817FBDEB88A3F527
:102400003F46FF3E0BD002EBC20303EB0212B0FBD0
:10241000F2F080B240F48040020506D007E002EB03
:102420004202B0FBF2F080B2F6E740F001004FF458
:10243000967251434FF47A72B1FBF2F140F40040CE
:10244000C7E7000040420F00A086010008B508441D
:102450000090008808BD008AC0B2704712B141F0F8
:10246000010101E001F0FE01018270470182704725
:102470000029018802D041F4004101E0C1F30E01BE
:10248000018070471FB5164C01212046FFF762FFFF
:1024900001212046FFF7ECFF00212046FFF7E8FF6F
:1024A0002046FFF72BFF0021ADF804104BF6FF701C
:1024B000ADF80600ADF808102015ADF80A000001CF
:1024C000ADF80C000748009001212046FFF70BFFF4
:1024D00069462046FFF75EFF04B0012010BD0000F2
:1024E00000540040801A060030B5012187B048052D
:1024F00000F0AAFF0121022000F082FF402000909E
:1025000002208DF8040003208DF8050001208DF8CD
:1025100006001B4D00248DF80740042206212846A2
:10252000FFF7FEFD69462846FFF7A9FD80200090D1
:10253000042207212846FFF7F3FD69462846FFF7E6
:102540009EFD104D2846FFF7D9FEADF80C404BF626
:10255000FF70ADF80E00ADF810402815ADF8120070
:102560000001ADF814000848029001212846FFF749
:10257000BAFE02A92846FFF70DFF07B030BD0000E4
:102580000004024000540040801A060010B500F01C
:1025900025FA0748B7EE000A80ED000A9FED050A0C
:1025A00080ED010A80ED020A80ED030A10BD0000F3
:1025B000100100200000000002494CF6CC400860E9
:1025C000704700000030004002494AF6AA20086027
:1025D000704700000030004001494860704700002B
:1025E0000030004001498860704700000030004022
:1025F000014908607047000000300040F0B500233A
:102600000A24302537261F4611E000BFB4EB107FA7
:1026100002D905EB107C01E006EB107C01F813C039
:1026200001EB430C00015B1C8CF80170DBB29342A0
:10263000ECD3F0BD10B51F210020FFF7AFFAC0F3B7
:10264000820010BDFEB50121072000F0D9FE012156
:10265000880300F011FF012001F07CFA8620032698
:1026600000908DF8056002208DF804000024374F9B
:102670008DF806408DF8074069463846FFF7FFFCA5
:102680000B2201213846FFF74BFD0B220221384671
:10269000FFF746FD0B2207213846FFF741FD3220A8
:1026A0002B4D009069462846FFF7E9FC0B220121DB
:1026B0002846FFF735FD0B2204212846FFF730FDA1
:1026C0000B2205212846FFF72BFD4FF46050214DCA
:1026D000009069462846FFF7D2FC0B221146284697
:1026E000FFF71EFD0B220C212846FFF719FD0B22D8
:1026F0000D212846FFF714FD01258DF805608DF8A2
:1027000004508DF8064000958DF80740694638461C
:10271000FFF7B5FC104EC6F88042322006F5207651
:1027200005F0BAFC35603D208DF808008DF80940B1
:102730008DF80A408DF80B5002A800F01FFEFFF73D
:1027400091F908B10020FEBD0120FEBD000002404D
:102750000008024000040240000040422DE9FC4114
:10276000002440F08000984616460F468DF8000081
:102770008DF8044025466B4601223121204600F0A9
:10278000CBFA012005F088FC38E038198DF80000FC
:102790006B4601223221002000F0BEFA012005F034
:1027A0007BFC80208DF800006B4601223421002044
:1027B00000F0B2FA012005F06FFC28466D1C3228AB
:1027C00003D96FF00100BDE8FC8101AB0122362185
:1027D000002000F063FA022005F05EFC9DF8040082
:1027E0004006EAD508EB040301223521002000F061
:1027F00055FA012005F050FC641CE4B2B442C4D385
:102800000020E0E77CB5002415460E468DF8000058
:102810008DF804406B4601223121204600F07CFAFD
:102820000A2005F039FC8DF800606B460122322148
:10283000002000F071FA0A2005F02EFC8DF80050FF
:102840006B4601223321002000F066FA0A2005F0D1
:1028500023FC80208DF800006B46012234210020EB
:1028600000F05AFA0A2005F017FC0F4D2046641CB0
:10287000322802D96FF001007CBD01AB0122362164
:10288000002000F00BFA012005F006FC9DF8040082
:10289000A8704006EAD59DF80400C00602D56FF086
:1028A00002007CBD00207CBD760000201CB50446E3
:1028B0006B4606223B21002000F0F0F9BDF8000035
:1028C000154A40BA2080BDF8020040BA6080BDF8C9
:1028D000040040BAA080BDF8000043BA1380BDF8E0
:1028E000020040BA5080BDF8041049BA918013FB31
:1028F00003F210FB002011FB0100FDF702FF41EC89
:10290000100B03F09DFD51EC100BFDF718FF024971
:102910000C3988801CBD0000820000201CB50446D4
:102920006B4606224321002000F0B8F9BDF80000F4
:1029300040BA2080BDF8020040BA6080BDF80400B3
:1029400040BAA080BDF8000041BA05480180BDF83A
:10295000021049BA4180BDF8041049BA81801CBDFB
:10296000880000201CB504466B460822492100203F
:1029700000F094F99DF80000C1072BD0800729D4FE
:102980009DF80700000625D4BDF801002080BDF8A1
:1029900003006080BDF80500A0800F48BDF801105D
:1029A0000180BDF803104180BDF805108180123808
:1029B0002188028811FB02F1091221806188428876
:1029C00011FB02F109126180A188808811FB00F0DF
:1029D0000012A0801CBD00008E0000203EB500202B
:1029E0004FF40041CDE9000101218DF808108DF868
:1029F0000A0002208DF809008DF80B1001A9844807
:102A0000FFF73DFB0CF038FB01200CF095FB80221A
:102A10006B21002000F066F9C82005F03DFB752110
:102A2000002000F01FF97B4C0146207060707AA0F6
:102A300002F07CFE2078712803D07AA002F076FEA6
:102A40003EBD03226B21002000F04CF9012005F06F
:102A500023FB10223721002000F044F9012005F06B
:102A60001BFB01223821002000F03CF9012005F079
:102A700013FBC0226C21002000F034F9012005F086
:102A80000BFB07221921002000F02CF9012005F092
:102A900003FB10221B21002000F024F9012005F087
:102AA000FBFA00221B21104600F01CF9012005F062
:102AB000F3FA01221C21002000F014F9012005F096
:102AC000EBFA012005F0E8FA08221D21002000F0B1
:102AD00009F9012005F0E0FA03221A21002000F094
:102AE00001F9012005F0D8FA6A21002000F0BAF8B7
:102AF0000446012005F0D0FA44F010026A210020BB
:102B000000F0F0F8012005F0C7FA6A21002000F07B
:102B1000A9F80446012005F0BFFA44F020026A211A
:102B2000002000F0DFF8012005F0B6FA01220B21A9
:102B30000C20FFF767FE012005F0AEFA10220A21F3
:102B40000C20FFF75FFE012005F0A6FA1F220A21E4
:102B50000C20FFF757FE012005F09EFA6B4603227A
:102B600010210C20FFF7FAFD2A489DF80010801D67
:102B7000803101809DF80110803141809DF8021064
:102B800080318180012005F087FA10220A210C2073
:102B9000FFF738FE012005F07FFA5D222421002096
:102BA00000F0A0F8012005F077FA8C222521002002
:102BB00000F098F8012005F06FFA0222262100208B
:102BC00000F090F8012005F067FA88222721002004
:102BD00000F088F8012005F05FFA16220A210C2087
:102BE000FFF710FE012005F057FA012234210020E2
:102BF00000F078F8012005F04FFA812267210020CB
:102C000000F070F8642005F047FA0EA016E7000007
:102C100000000240760000206964203D2564200AFF
:102C2000000000004D5055363030302053504920C0
:102C3000636F6E6E656374696F6E205B4641494CCD
:102C40005D2E0A004D50553630303020535049200B
:102C5000636F6E6E656374696F6E205B4F4B5D2EA4
:102C60000A0000002DE9F0410B4F0D464FF40046DD
:102C7000002431463846FFF763FA45F080000CF037
:102C800075FA20460CF072FA044631463846FFF7D2
:102C900059FA2046BDE8F081000002402DE9F047D6
:102CA000DFF83CA0884600244FF400491F46154633
:102CB000264649465046FFF743FA48F080000CF09C
:102CC00055FA04E030460CF051FA3855641CAC4219
:102CD000F8D349465046FFF735FA0020BDE8F087A3
:102CE000000002402DE9F0410A4F0D464FF4004626
:102CF000144631463846FFF723FA28460CF036FAD8
:102D000020460CF033FA31463846FFF71BFA002014
:102D1000BDE8F081000002402DE9F047DFF8349073
:102D20000F464FF400481E461546002441464846CB
:102D3000FFF706FA384601E0305D641C0CF016FA25
:102D4000AC42F9D341464846FFF7FCF90020BDE804
:102D5000F08700000000024010B5B7EE000A00F056
:102D600075FA9FED131AC0EE010A10EE900AFDF7F6
:102D70001EFD41EC100B9FED0F1B02F039FD9FED86
:102D80000F1B51EC100B53EC112BFDF7D6FB9FEDF5
:102D90000D1B53EC112BFDF7D3FB9FED0C1B53ECDC
:102DA000112BFDF7CDFBFDF715FD00EE100A10BD50
:102DB00000507D44000000E0395BC83F0000000087
:102DC0000000F03F9A999999B3BE0141FD87F4DB69
:102DD000D781D33F2DE9F04F05468DB0698AC06990
:102DE0006B784942079300EB0126688AE969404203
:102DF00001EB0020EA894FF00009A2FB00B8C117DF
:102E000009FB008402FB014E0C912A8ACC46A2FBEE
:102E100000480CFB008002FB01000090A8690990AB
:102E2000A8890590B5F80A804F46CA46012B584636
:102E300071467ED04FF480720023FDF76AFA4FEAA4
:102E4000C832821841EB5848069220464FF0800263
:102E50004FF000030099FDF75CFA059B00241A0C63
:102E60001B04C31841EB020B0893099B069AA3FBB2
:102E7000020C04FB02C203FB08214FF4001223469C
:102E8000FDF747FA089B4FF40052C01A61EB0B01A3
:102E90000023FDF73EFA6862AB8A0021A3FB06041B
:102EA00001FB06410C9A03FB02114FF400020023C0
:102EB000FDF72FFA4FF4FA6144182C6207980128A5
:102EC00066D08C427EDA86FB06120326A1FB06073B
:102ED00002FB0672002301FB03211A460223FDF7C1
:102EE00018FA8246A4F5FA60404300EB400101EB7A
:102EF000D1714F1000EB8000C11700EB51704FEA09
:102F0000E009642094FBF0F010F10F0F72DA04F284
:102F1000DC5000FB00F1C1EBC1010F44A10040F205
:102F2000DC5201EB820202FB009000E001E08146EE
:102F300060E080220023FDF7ECF94FEA0843C01857
:102F400041EB1848069020464FF040024FF0000336
:102F50000099FDF7DEF9059BDA0B5B04C3180893B3
:102F6000099B069841EB020BA3FB004C002202FBDD
:102F700000C003FB080120464FF400120023FDF7B8
:102F8000C8F9089B4FF40042C01A61EB0B017FE7C0
:102F90008C422FDA86FB06130B22A1FB020703FBF0
:102FA0000272002601FB062132460823FDF7B1F923
:102FB0008246A4F5FA604043C0EB4011CA1701EB0A
:102FC000527100E007E0CF10C0EB8010C11700EB9A
:102FD000D1604011A9E776437000C1170022202379
:102FE000FDF797F98246A4F5FA604043C11700EB5C
:102FF000117007110898F917C71B069A6BEB0106A9
:10300000B2EB0901079A68EBE970012AA4EB0A0206
:103010002A62099A4FF00003A2FB014C03FB01C195
:1030200002FB00114FF40012204611D0FDF771F998
:10303000C01B61EB06014FF400520023FDF769F954
:103040000A220023FDF765F968620DB0BDE8F08F34
:10305000FDF75FF9C01B61EB06014FF4004200234E
:10306000FDF757F96422ECE700B501469FED080A29
:1030700000F0ECF8DFED070A9FED071A70EE600A2A
:1030800091ED010A20EE011A80EE810A00BD0000D8
:103090000000C8426076CF3D0AE81C4100B58BB005
:1030A0008DF801108DED010A8DF800202822694667
:1030B000FDF760F90BB000BD2DE9F843404D8046A7
:1030C0004FF0FF361E21EC2010F0CCFE48B13DA1A0
:1030D000424802F03BFBA880404941A002F026FB99
:1030E00062E00A2004F0D8FF0024A02707EB440088
:1030F000C1B2EC2010F0B6FE10B1012639A14AE0B1
:103100006A460221ED2010F0ABFE10B102263DA16F
:1031100041E008EB4401BDF80000641C40BAE4B291
:103120000881072CE2D3701C02D0002ECAD13BE0EC
:10313000B8F8081000204FEA113CC1F30B01A8F8C1
:10314000081008F10803A8F8160001464FF440548F
:103150004FF6FF76CA0721F0010202D09A5C504078
:1031600002E09A5A80EA12200822070403D584EA72
:10317000400080B201E006EA4000521E12F0FF0259
:10318000F3D1491CC9B21029E4D3C0F3073060451C
:103190000AD0032622A1114802F0D8FAA8800F49CC
:1031A0000FA002F0C3FA8DE722A10C4802F0CEFA7C
:1031B000A8800A490AA002F0B9FABDE8F883000025
:1031C000980000204D53353833372052455345542D
:1031D000206661696C65640A0D000000100700201C
:1031E000257300004D53353833372069326320543E
:1031F00052414E534D4954206661696C65640A0D15
:10320000000000004D5335383337206932632052B7
:10321000454349455645206661696C65640A0D0061
:103220004D533538333720435243206572726F72E5
:103230000A0D00004D533538333720696E6974200C
:1032400053554343455353210A0D0000D0ED090A5D
:10325000F8EEE00A20EE800A704738B504464A21AD
:10326000EC2010F0FFFD08BB322004F015FF002118
:10327000EC2010F0F7FDC8B9142004F00DFF6A46E9
:103280000321ED2010F0ECFDD8B9684610F04CF8A1
:10329000A0615A21EC2010F0E5FD38B9322004F08D
:1032A000FBFE0021EC2010F0DDFD08B1012038BD4F
:1032B000142004F0F1FE6A460321ED2010F0D0FD49
:1032C00008B1022038BD684610F02EF8E0612046B3
:1032D000FFF780FD002038BD90ED080A9FED031A2E
:1032E000F8EEC00A80EE810A704700000000C84274
:1032F0000E48F6EE000AB7EE001AC0ED130ADFED35
:103300000C0A80ED0B1AC0ED0C0AC0ED0D0AC0EDE1
:103310000E0AC0ED0F0AC0ED100AC0ED110AC1EE91
:10332000000A00218170C0ED120A7047AC01002034
:10333000000000000021012009F002F80021022015
:1033400008F0FEFF0021032008F0FAFF002104200E
:1033500008F0F6FF9C2102A00CF0A6F8FEE70000A2
:103360002E2E5C48415244574152455C7372635C57
:103370006E7669632E6300007047000030B50F223F
:10338000C47801780123FCB1144C246801F1E021D8
:1033900004F4E064C4F5E064C4F30724C4F1040554
:1033A000E2404478AC408578154025432A0181F8F5
:1033B0000024007800F01F018B404009800000F1DC
:1033C000E020C0F8003130BD01F01F008340480903
:1033D000800000F1E020C0F8803130BD0CED00E04D
:1033E0000249084302490860704700000000FA05DE
:1033F0000CED00E0014801F0AFB90000408800206A
:10340000044A0029116801D0014300E081431160A2
:103410007047000030380240044A0029116801D08A
:10342000014300E081431160704700001038024002
:10343000044A0029116801D0014300E08143116072
:103440007047000034380240044A0029116801D056
:10345000014300E0814311607047000040380240A2
:10346000044A0029116801D0014300E08143116042
:103470007047000020380240044A0029116801D03A
:10348000014300E08143116070470000443802406E
:10349000044A0029116801D0014300E08143116012
:1034A00070470000243802400248016841F08071F2
:1034B000016070477438024070B5204A1168204C92
:1034C00011F00C0104D01F4E042903D0082903D0A9
:1034D00004601BE0066019E01849091F0B68C3F37C
:1034E00080550B6803F03F0315B1B6FBF3F301E021
:1034F000B4FBF3F30C680968C4F388146343C1F3A5
:103500000141491C4900B3FBF1F1016011680F232F
:1035100003EA11110C4B5C5C0168E14041601468E6
:10352000072505EA94241C5D21FA04F484601268DE
:1035300005EA52329A5CD140C16070BD0838024041
:103540000024F40040787D01AA00002002460020FB
:10355000510901290BD002290CD00849096802F051
:103560001F02012393400B4200D001207047034902
:103570007439F3E70149091FF0E70000743802408D
:103580000029018802D041F0400101E021F0400112
:10359000018070471A4910B5884202D10121841474
:1035A00024E01849884202D10121041404E016499C
:1035B00088420AD10121C4132046FFF751FF20465B
:1035C000BDE810400021FFF74BBF1049884202D1EF
:1035D000012144140AE00E49884202D101210C0560
:1035E00004E00C4988420AD101214C052046FFF72E
:1035F0004FFF2046BDE810400021FFF749BF10BD36
:103600000030014000380040003C004000340140E0
:1036100000500140005401400246002012890A4235
:1036200000D001207047808970478181704730B594
:1036300002884C8802F441530A88CD8822438C8842
:103640002C4322430C8922434C8922438C892243F8
:10365000CC8922431A430280828B22F40062828347
:10366000098A018230BD00001C49884201D2002035
:1036700070471B49884201D2082070471949884287
:1036800001D2102070471849884201D21820704793
:103690001649884201D2202070471549884201D23C
:1036A000282070471349884201D2302070471249C0
:1036B000884201D2382070471049884201D2402008
:1036C00070470F49884201D2482070470D4988420F
:1036D00001D2502070475820704700000040000879
:1036E0000080000800C00008000001080000020877
:1036F00000000408000006080000080800000A088E
:1037000000000C0800000E0810B5002303E010C8EC
:1037100041F823405B1C9342F9D310BD2DE9F041E1
:1037200017460E460446B0F1006F2ED3A0072CD1E9
:10373000FEF784FC0020FEF7F9FB1548254604EB54
:10374000870784420DD317E02868401C08D028461C
:10375000FFF78AFF0221FEF7F7FB092801D00DE0F1
:103760002D1DBD42F0D307E020463168FEF748FC2E
:10377000092803D1241D361DBC42F5D30120FEF7D4
:10378000D5FBBDE8F041FEF733BCBDE8F081000099
:103790000000FF1F2DE9FE4F824600200290AB483B
:1037A00016460F464FF40035A94C009005E00098EE
:1037B000411E009101D2072032E1A9462946204648
:1037C000FEF7D2FD0028F2D101212046FEF7B8FD18
:1037D0004FF46175DFF87C82009505E00098411E8A
:1037E000009101D20C201BE141462046FEF7BCFDB2
:1037F0000128F3D1012251462046FEF72FFEA846AC
:103800000095944D6D1C05E00098411E009101D279
:103810000D2005E129462046FEF7A6FD0128F3D13B
:10382000DFF830B2DFF82CA20BF1030B0AF13F0AEC
:10383000012F10D0022F33D0032F4FF01401204658
:103840005BD0FEF703FE18212046FEF7FFFD0025A2
:10385000F81E0190D5E000212046FEF737FD142127
:103860002046FEF7F3FD18212046FEF7EFFD01216B
:103870002046FEF76FFD5546CDF8008005E0009923
:10388000481E009001D20E20CAE029462046FEF7CD
:103890006BFD0128F3D12046FEF7DDFD3070B2E06C
:1038A00000212046FEF712FD208840F400602080B1
:1038B00014212046FEF7CAFD18212046FEF7C6FD5A
:1038C0005D46CDF8008005E00098411E009101D2D0
:1038D0000F20A5E029462046FEF746FD0128F3D13A
:1038E00001212046FEF736FD2046FEF7B4FD30707C
:1038F0002046FEF7B0FD707085E0FEF7A7FD1821A9
:103900002046FEF7A3FD45465F46CDF8008003E064
:103910000098411E009118D339462046FEF724FD39
:103920000128F5D100212046FEF7D0FC2046FEF705
:1039300092FD307001212046FEF70CFD2046FEF777
:103940008AFD70700095554605E0102068E00099EA
:10395000481E00900AD329462046FEF705FD01289F
:10396000F5D12046FEF777FDB0704CE0112057E00E
:103970000198854231D14746CDF8008003E0009898
:10398000411E0091E1D359462046FEF7EDFC012887
:10399000F5D100212046FEF799FC2046FEF75BFD9D
:1039A0007055012120466D1CFEF7D4FC2046FEF721
:1039B00052FD7055009757466D1C03E00098411E5C
:1039C0000091D3D339462046FEF7CEFC0128F5D12D
:1039D0002046FEF740FD705515E0CDF8008005E06B
:1039E0000098411E009101D2122019E05146204654
:1039F000FEF7BAFC0128F3D12046FEF72CFD7055E6
:103A00006D1CBD42B4D359462046FEF769FC0F48F1
:103A10004D46009008E00098411E009104D213200A
:103A2000BDE8FE4FFEF72EBD29462046FEF79CFC62
:103A30000028F0D101212046FEF748FC208820F420
:103A4000006020800298BDE8FE8F0000B01E0400D8
:103A500000540040010000102DE9F84380463A4828
:103A6000894600264FF40035384C009005E0009858
:103A7000411E009101D2012054E029462046FEF764
:103A800073FC0028F3D101212046FEF759FC4FF4C6
:103A900061752F4F009505E00098411E009101D2FD
:103AA00002203FE039462046FEF75EFC0128F3D1B4
:103AB000002241462046FEF7D1FC254F00957F1C91
:103AC00005E00098411E009101D203202AE039460A
:103AD0002046FEF749FC0128F3D114212046FEF7C9
:103AE000B5FC18212046FEF7B1FC194F00957F3731
:103AF00005E00098411E009101D2042012E03946F1
:103B00002046FEF731FC0128F3D149462046FEF756
:103B1000ADFC00950E4DED1C08E00098411E009193
:103B200004D20620BDE8F843FEF7ACBC2946204687
:103B3000FEF71AFC0128F0D101212046FEF70AFC0D
:103B40003046BDE8F8830000B01E04000054004079
:103B5000010000100149C1F8DC0070470000274255
:103B60002DE9F04180460C4816460F460588002492
:103B7000324639464046FFF70DFE00280AD0002D98
:103B800008D02146641CE4B2042903D8284604F076
:103B900083FAEDE7BDE8F081A80000202DE9F041AF
:103BA00007460B480E460024058831463846FFF785
:103BB00053FF00280AD0002D08D02146641CE4B22F
:103BC000042903D8284604F067FAEEE7BDE8F0813F
:103BD000A80000201CB500202E49019000900A6822
:103BE00042F480320A604FF4A0430A6802F40032C3
:103BF0000092019A521C0192009A12B9019A9A42BB
:103C0000F3D10A68920342D5012000902148403048
:103C1000026842F0805202601F48026842F440424B
:103C200002601C4A083213681360136843F40043AF
:103C30001360136843F4A0531360141F174B2360E1
:103C40000B6843F080730B600B689B01FCD5016827
:103C500041F4803101604168C903FCD5016841F439
:103C60000031016041688903FCD50D4940F20570BF
:103C70000860106820F003001060106840F0020037
:103C800010601068C0F381000228FAD11CBD0090BA
:103C90001CBD00000038024000700040195A400767
:103CA000003C02404FF0E0210428086903D020F0D6
:103CB00004000861704740F00400FAE710B510F006
:103CC000B9FD012803D0BDE8104010F06FBB0248D9
:103CD0000168491C016010BD48000020124810B561
:103CE000016841F4700101601048016841F0010170
:103CF00001600E4A00210832116002680C4B1A4024
:103D00000260031D0B4A1A60026822F480220260DE
:103D100006480C300160FFF75DFF03494FF000607B
:103D20008039086010BD000088ED00E000380240D6
:103D3000FFFFF6FE1030002410B5084C012120468C
:103D400000F008F9012803D1054908680A30086025
:103D50002046BDE81040012100F03CB800040040BE
:103D6000580400207FB50D46044601210220FFF7CC
:103D70006BFB00200194ADF80050104CADF8020030
:103D8000ADF808006946204600F0FEF90122114610
:103D9000204600F0EBF80121204600F01EF81D201F
:103DA0008DF80C0001208DF80D0003218DF80E1008
:103DB0008DF80F0003A8FFF7E1FA7FBD0004004073
:103DC0000029018802D041F0800101E021F080014A
:103DD00001807047C943018270470029018802D0E1
:103DE00041F0010101E021F001010180704700294B
:103DF00030F8441F02D041F4004101E0C1F30E014C
:103E000001807047464910B5884206D10121084615
:103E1000FFF73EFB002101205BE0B0F1804F09D0AD
:103E2000404988420DD101210220FFF719FB0021F2
:103E3000022070E001210846FFF712FB002101205B
:103E400069E03949884206D101210420FFF708FBC7
:103E5000002104205FE03549884206D10121082075
:103E6000FFF7FEFA0021082055E03149884206D1CB
:103E700001211020FFF7F4FA002110204BE02D491A
:103E8000884206D101212020FFF7EAFA00212020F4
:103E900041E02949884206D101210220FFF7F8FAC2
:103EA0000021022015E02549884202D101210C049D
:103EB0000AE02349884202D101214C0404E021494F
:103EC00088420AD101218C042046FFF7E1FA002143
:103ED0002046BDE81040FFF7DBBA1B49884206D1F7
:103EE00001214020FFF7BCFA0021402013E01749D0
:103EF000884206D101218020FFF7B2FA00218020FC
:103F000009E0134988420AD1841501212046FFF7B0
:103F1000A7FA00212046BDE81040FFF7A1BA10BD66
:103F2000000001400004004000080040000C004078
:103F30000010004000140040000401400040014017
:103F4000004401400048014000180040001C0040AF
:103F50000020004002460020138A92890B4202EAA8
:103F6000010202D0002A00D001207047002A828975
:103F700001D00A4300E08A438281704730B5028C49
:103F800022F001020284028C8388048B22F0020258
:103F900024F073050C882C438D8915434A882A43E5
:103FA0000C4DA84202D00C4DA8420DD122F00805BC
:103FB000CA8923F440732A4322F004058A882A43DD
:103FC0000D8A1D434B8A2B43838004838968416398
:103FD000028430BD0000014000040140028B22F049
:103FE00008020A430283704770B5028C22F0100267
:103FF0000284028C8488038B0D8823F4E6464FF6F6
:10400000FF7303EA052535438E8922F0200203EA77
:10401000061616434A8803EA02123243104EB04293
:1040200002D0104EB04215D122F08006CA8924F485
:10403000406403EA0212324322F040068A8803EA0F
:10404000021232430E8A03EA860626434C8A03EAAA
:10405000840434438480058389688163028470BD4D
:104060000000014000040140028B4FF6FF7322F470
:10407000006203EA012111430183704770B5028C8D
:1040800022F480720284028C8488838B0D8823F052
:1040900073031D4322F400738E894FF6FF7202EA08
:1040A00006261E434B8802EA03233343104EB042D8
:1040B00002D0104EB04215D123F40066CB8924F40F
:1040C000405402EA0323334323F480668B8802EAD8
:1040D000032333430E8A02EA061626434C8A02EA79
:1040E00004143443848085838968C163038470BD6C
:1040F0000000014000040140828B22F008020A43C4
:104100008283704770B5028C22F480520284048C42
:104110008288838B0D8823F4E6464FF6FF7303EA0B
:104120000525354324F400568C8903EA04343443CE
:104130004E8803EA06362643084CA04202D0084CBB
:10414000A04205D122F480440A8A03EA8212224363
:104150008280858389680164068470BD0000014007
:1041600000040140828B4FF6FF7322F4006203EAE1
:104170000121114381837047416370478163704718
:10418000C16370470164704730B50288164B174C05
:1041900098420DD0A0420BD0B0F1804F08D0144D02
:1041A000A84205D0134DA84202D0134DA84203D116
:1041B00022F070054A882A43104DA84206D0104DBF
:1041C000A84203D022F440750A892A4302804A6833
:1041D000C2620A880285984201D0A04201D1897A40
:1041E00001860121818230BD0000014000040140B0
:1041F0000004004000080040000C00400010004097
:10420000001400402DE9F04105460D480F46A9B2C3
:10421000D0E901460322002008F05CFAAAB2394630
:10422000A06009F08BF8214630460EF06BF8A068CC
:10423000002803D0BDE8F04108F07CBEBDE8F08165
:104240005C04002070B5154C40F22551204600F06A
:1042500042F800280ED0204600F0CAF8C2B210483A
:1042600001880B0406D44C044FF0000306D50A2A3B
:1042700001D0038070BD41F400410DE00D2A09D04A
:10428000C1F30D04074D491C89B22A550180C72985
:10429000EFD870BD41F48041018070BD0010014035
:1042A000100000203C0500200FF0ECB9C94301804C
:1042B00070470029818902D041F4005101E021F4C6
:1042C000005181817047002A828A01D00A4300E0B0
:1042D0008A438282704730B501F01F020124002515
:1042E000C1F3421304FA02F2012B0FD0022B0FD0BC
:1042F000838A4FEA11210088134204FA01F400EA8C
:10430000040001D000B10125284630BD8389F0E7C3
:10431000038AEEE710B5C1F3421301F01F04012137
:10432000A140012B07D0022B07D01430002A0268CD
:1043300005D00A4304E00C30F8E71030F6E78A4372
:10434000026010BD7FB50446008A0D4620F440513E
:10435000E88808432082A08941F20C618843A9883B
:104360002A8911436A8902431143A181A08A20F45A
:104370004071A8890843A0826846FFF79DF81A4853
:10438000844202D01948844201D1039800E0029887
:10439000A189090400EBC00101EB0010296801D5D7
:1043A000490000E08900B0FBF1F26420B2FBF0F1BB
:1043B00009010B096FF018056B4302EB8302A38917
:1043C0001D044FF0320306D503EBC202B2FBF0F03E
:1043D00000F0070005E003EB0212B2FBF0F000F082
:1043E0000F00084320817FBD0010014000140140F0
:1043F0008088C0F308007047C1F3080181807047CE
:1044000010B5D0F8E42552689047002010BD10B5D3
:10441000134600240A462146FCF712FD204610BD33
:1044200010B5134600240A462146FCF74FFD2046EE
:1044300010BD10B504468021FCF72CFD002120465C
:10444000FCF728FD2046BDE8104000F093BE10B5F3
:10445000C0F894230323C0F8902380F81131134649
:1044600000240A462146FCF7EBFC204610BD70B53F
:1044700005460024052085F81101234622462146E1
:104480002846FCF7DDFC284600F074FE204670BD8F
:1044900010B5C0F83C210223C0F8382180F8113152
:1044A000134600240A462146FCF710FD204610BDA5
:1044B00070B505460024042085F8110123462246E4
:1044C00021462846FCF702FD284600F053FE204610
:1044D00070BD000070B5054641B1D5F8E4054269EC
:1044E000BAB395F8120103284CD04DE095F81101AC
:1044F000002605F58E74022839D1E169A068814251
:104500000FD9081AE061E878012803D1D4E9021034
:104510000844E060A08BE16882B22846FFF780FF84
:1045200010E0216AB1FBF0F200FB121292B9814255
:1045300010D3606A81420DD2002211462846FFF74F
:104540006FFF666200231A4619462846FCF778FC7E
:104550000DE016E0D5F8E405C16829B195F812011F
:10456000032801D1284688472846FFF780FF95F8A1
:104570001601012808D1054800682969486085F8B6
:10458000166101E028469047002070BD140300200A
:1045900070B5054641B1D5F8E40582690AB395F8CE
:1045A000120103282CD02DE095F8110105F55D745A
:1045B000032827D1E169A068814213D9081AE06174
:1045C000E878012803D1D4E902100844E060E169E9
:1045D000A068814200D2084682B22846E168FFF70F
:1045E00016FF0FE0D5F8E405016929B195F812012D
:1045F000032801D1284688472846FFF759FF01E0E4
:1046000028469047002070BD38B50446C888ADF8EC
:10461000000048880D46010A04294CD2DFE801F069
:104620004B020713D4F8EC15A0780A6830E0D4F8F0
:10463000E415A0788A6A69469047014602204870CE
:10464000C4F8F01527E0C0B2062834D2DFE800F045
:1046500003080D12171CD4F8EC15A0784A6817E06F
:10466000D4F8EC15A0788A6812E0D4F8EC15A0789C
:10467000CA680DE0D4F8EC15A0780A6908E0D4F80F
:10468000EC15A0784A6903E0D4F8EC15A0788A69A3
:10469000694690470146BDF8000000280AD0EA8824
:1046A000002A07D0824200D90246ADF800202046F9
:1046B000FFF7EEFE38BD29462046FFF7BAFE38BDAB
:1046C00070B5002300281DD00446002502E06D1CB3
:1046D000EDB2641C2678002EF9D1022404EB4504C7
:1046E0001480CC545B1C0322CA5400245B1C06E0DB
:1046F000CA545B1CDAB28C54521CD3B2401C0278F0
:10470000002AF5D170BD2DE9F0411D4617468846B7
:104710000446069E00F070FB04F2E452414682E833
:10472000E0002046FCF706FED4F8E8050068804764
:104730002046BDE8F04100F049BB10B5D0F8E415C3
:10474000096A8847002010BD10B5D0F8E415496A01
:104750008847002010BD00002DE9F04105460024E7
:1047600000F09FFE00286AD0284600F0A3FE061E37
:1047700066D0300303D52846FCF7CEFC0446700310
:1047800003D52846FCF768FC0443B00702D5E96866
:10479000022048612B4F002E16DAA87A28B1D5F8EE
:1047A0000C01016821F0030101602869416821F0D2
:1047B000010141603868816928468847E9684FF0FF
:1047C0000040486144F00104300503D52846FCF759
:1047D00037FD0443300708D53868C1682846884744
:1047E000E9680820486144F00104F00603D5284632
:1047F000FCF7E8FC0443F00403D52846FCF758FD19
:104800000443B00403D52846FCF780FB0443F002C0
:1048100009D53868C16928468847E9684FF480108F
:10482000486144F00104B00209D53868016A28469D
:104830008847E9684FF40010486144F001042046BD
:10484000BDE8F0811003002090F8CC250A7090F8A4
:10485000CD254A7090F8CE2590F8CF3502EB032293
:104860004A8090F8D02590F8D13502EB03228A8057
:1048700090F8D22590F8D33502EB032292B2CA8089
:104880000121C0F8402180F81111704710B50023B4
:10489000044640221946FCF7B5FA00234022802145
:1048A0002046FCF7AFFA012084F81201D4F8E8158D
:1048B000A07849688847002010BD10B50446D0F89C
:1048C000E80500698047032084F81201002010BD2C
:1048D00010B5D0F8E415C96901B18847002010BDB2
:1048E00010B50446D0F8E405026820469047D4F895
:1048F000E80580688047002010BD000070B50A46BA
:104900001A4D897804462970012905D894F81201B6
:10491000022807D003280CD02046BDE8704011467D
:10492000FFF787BDA1B184F81011032084F81201AC
:104930000BE091B194F81001884209D0014620465D
:10494000FFF75EFD297884F810112046FFF7C8FFB5
:104950002046BDE87040FFF7ABBD022084F812018D
:1049600084F810112046FFF74BFDF1E718030020F3
:1049700010B504464888012201280FD0022831D101
:10498000888810F0FF0F2DD121694968000A062898
:104990001CD2DFE800F01B1B0B0F1317C4F8182103
:1049A000D4F8E40582682046904716E021F07001B3
:1049B00020310EE021F0700130310AE021F0700169
:1049C000403106E021F07001503102E021F0700129
:1049D00010310548016084F816212046BDE81040DA
:1049E000FFF766BD10BD0000140300201CB504468F
:1049F0006946FFF729FF9DF8001011F01F000AD04B
:104A000001280DD0022810D001F080012046FCF7CB
:104A100041FA00201CBD6946204600F00BF8F8E77B
:104A20006946204600F0F6F8F3E76946204600F0B4
:104A300079F8EEE72DE9F0414A78002701260A2AA5
:104A400042D2DFE802F03B554152410805412A2796
:104A5000FFF7DAFD61E004468888C8B9C888B8B9AC
:104A6000887800F07F0594F81201032810D084F8AC
:104A7000145129462046FCF705FA2046FFF718FD99
:104A80001DB1022084F8120147E084F8126144E06D
:104A9000204619E0FFF732FF3FE0CA88012A13D110
:104AA00090F81221022A02D0032A0DD102E001223D
:104AB0001B4917E0012200F5887113E090F81221DC
:104AC000022A04D0032A02D0FFF7B3FC25E01449E0
:104AD0000839CE60D0F818210AB10322CA60104903
:104AE0000222091DFFF7D4FC17E0FFF741FF14E095
:104AF000044690F81201022801D00328C8D1488842
:104B000001280AD10020C4F81801D4F8E40582680D
:104B1000204690472046FFF7CBFC3846BDE8F081A1
:104B20002003002070B50D46044628780026097938
:104B3000C0F34110012806D0687878B301281ED050
:104B400003283AD106E0D4F8E405294682682046D5
:104B5000904732E094F81201022830D0032828D17F
:104B6000688828B921B1802902D02046FCF792F943
:104B7000D4F8E40529468268204690470FE094F86F
:104B8000120102281BD0032813D16888A8B931B1BB
:104B9000802904D02046FCF719F9E9E703E0204614
:104BA000FFF786FC09E094F81201022807D00328D9
:104BB0000DD029462046FFF73CFC304670BD002949
:104BC000FBD08029F9D02046FCF764F9F5E71048BE
:104BD0000D064FF000034FF0010208D501F07F01F0
:104BE00001EB810104EBC10191F81E1105E001EB1D
:104BF000810104EBC10191F8761309B1426000E034
:104C0000436003490222091D2046FFF741FCD4E717
:104C10001803002070B5054690F8120100260C46D6
:104C200003280DD1207901280AD8D5F8E405826837
:104C300028469047E08830B92846FFF739FC02E063
:104C40002846FFF7F6FB304670BD10B590F81211FC
:104C500080F81311042180F81211D0F8E805C0681B
:104C60008047002010BD000010B50A46024903A08D
:104C7000FFF726FD004810BD348E0020564350201B
:104C8000436F6E6669670000014901200870704734
:104C90002C04002001490120087070472C040020DA
:104CA00012200880004870470004002001490020BD
:104CB000087070472C04002070477047014900209D
:104CC000087070472C0400207047000010B50A4699
:104CD000024903A0FFF7F4FC004810BD348E002009
:104CE00056435020496E746572666163650000002A
:104CF0000420088000487047FC03002010B50A46D5
:104D0000024903A0FFF7DCFC004810BD348E0020F0
:104D100053544D6963726F656C656374726F6E692D
:104D2000637300000A4610B5044928B104A000BF0F
:104D3000FFF7C6FC014810BD0AA0F9E7348E002039
:104D400053544D3332205669727475616C20436F31
:104D50006D506F727420696E204653204D6F6465EC
:104D60000000000053544D3332205669727475614F
:104D70006C20436F6D506F727420696E2048532011
:104D80006D6F64650000000010B51A2008800A48A5
:104D90000168001D0468001D0068081809D0082279
:104DA0000649FDF72BFC0549042210312046FDF78A
:104DB00025FC0248801E10BD107AFF1F140400203D
:104DC00043200880004870475003002008B54FF486
:104DD0004070FEF705FB43208DF800000A208DF897
:104DE000010000208DF8020001208DF803006846C4
:104DF000FEF7C4FA08BD00001CB501210846FEF705
:104E0000FFFA4FF4C050009003208DF805000220F7
:104E10008DF8040000208DF806000D4C8DF8070079
:104E200069462046FDF72BF90A220B212046FDF7A3
:104E300077F90A220C212046FDF772F90121880337
:104E4000FEF71AFB01218020FEF7F2FA1CBD0000DC
:104E5000000002404FF47A714843AFF30080C0EB8A
:104E600000100021C0000722B0FBF2F0491C814273
:104E7000FCD9704770B50446017A0025C068012945
:104E800015D0C16841F04001C160204600F0CAF869
:104E9000617A4FF4341009B14FF47410E1688863FB
:104EA0001420FFF7D7FFE078012819D020E0816BAC
:104EB000627A21F480310AB141F480118163E068A3
:104EC000C16821F0401121F42021C160204600F08A
:104ED000A9F8E07801280BD1E1682A208860E2E790
:104EE000E068816821F01E010A3141F020018160F3
:104EF000284670BD2DE9F04104460027D0F80C018A
:104F00003E46354607602069016821F4C0510160C2
:104F1000E07A012829D10321204600F0BCFAE0689C
:104F20008022426220212846E36861F31F4062F339
:104F30000F00986200EB104060F30F05E06862F329
:104F40001F45C0F8045105EB154060F30F05E068FC
:104F500061F31F45C0F8085105EB154060F30F05DC
:104F6000E06866F31F45C0F80C511021204600F0A0
:104F700063FA204600F044FA206906612069466120
:104F800021694FF0FF3088612069C66100214FF030
:104F90009040FF2312E000BF04EB8105D5F818C054
:104FA000DCF80020002A01DA024600E03246CCF8A4
:104FB0000020AA691661AA699360491C62788A4236
:104FC000EAD8002212E000BF04EB8205D5F854C0F5
:104FD000DCF80010002901DA014600E03146CCF887
:104FE0000010696D0E61696D8B60521C6178914291
:104FF000EAD82069016941F480710161E0780128F3
:1050000009D10320402161F38A0040F4803061F32C
:10501000594021690863204600F0C6F93846BDE8CA
:10502000F0810000F8B5002704463E460097124D77
:105030000320FFF714FFE06800690090761CAE4281
:1050400001D90020F8BD00980028F1DA009900206D
:1050500041F0010100910099E2681161E1680A697B
:105060000092401CA84202D8009AD207F7D1032030
:10507000FFF7F5FE3846F8BD400D0300C06800217B
:10508000826822F0010282600846704710B501690B
:1050900000238C6882691168C4F341041CB1012C9F
:1050A00001D0022C02D06FF30A0102E06FF30A0173
:1050B000C91C11600069416841F480714160184663
:1050C00010BD0000F0B54A7800264B69012A13D0C4
:1050D0000A7800EB82056A6D14681269BBB38B68AD
:1050E000C1F8143063F306026B6D42F400221A61BA
:1050F000C278012A2ED033E084692768226933B14F
:105100008D68AB4206D965F306024D6104E022F0DA
:105110007F0201E063F3060242F400222261C278BA
:10512000012A05D10B780A6900EB83039B695A6158
:1051300047F004422260C278CAB94A69BAB10A7813
:10514000006901219140426B0A4342630FE0FFE78F
:105150000B7AC7E70B780A6900EB83035B6D5A6132
:10516000097844F0044200EB8100406D0260304653
:10517000F0BD0000426D07491161C178012908D1D5
:10518000426D00F2CC515161406D01684FF08021B9
:105190000160704718000860F0B50E7800254F7860
:1051A0000122B2402B4600EB8604012F19D0646D1A
:1051B00062F31F43226816040DD40E8966F30A02B7
:1051C000CE78897966F3934261F3995242F0805127
:1051D00041F4004121600069C1691943C161284659
:1051E000F0BDA46962F30F03E4E710B502464C7802
:1051F0000B78002002EB8302012C09D0526D13685A
:10520000C97823F40013032904D0022902D003E053
:105210009269F4E743F08053136010BD30B50C7809
:1052200003464D7801220020A24003EB8401012DAA
:1052300009D04C6D014662F31F4120601A69D369A1
:105240008B43D36130BD8C69014662F30F01F4E7F3
:1052500002464B780978002002EB8101012B05D032
:10526000496D0A6842F400120A6070478A69116841
:10527000002901DA41F0804141F4001111607047CA
:10528000F0B54A780D78002401234E6900EB8507BC
:10529000012A19D07A6D15681269002E65D08B68C5
:1052A0001E44761EB6FBF3F666F3DC42C2F3C94633
:1052B0005E4366F31202C2F312034B617B6D1A6107
:1052C000C278012A57D05CE0BF693D683A696EB187
:1052D000D1F808C066F312026644761EB6FBFCF6EF
:1052E00066F3DC42CE78012E05D008E06FF312029F
:1052F00063F3DC4203E022F0C04202F100523A6163
:10530000C278012A0ED0CA78012A12D04A69BAB1ED
:105310000A7893400269566B1E435663CA78012A85
:1053200007D00DE00B780A6900EB83039B695A6193
:10533000F4E702699268120AD2070CD045F0805552
:105340000B7845F0044200EB83039B691A60CA782E
:10535000012A03D026E045F00055F1E78A8A93B28E
:105360000A78C96800F045F91CE08E6866F31202FD
:1053700063F3DC42A2E70B780A6900EB83035B6D01
:105380005A61CA78012A06D14A7912B145F000550E
:1053900001E045F08055097845F0044200EB8100BA
:1053A000406D02602046F0BD30B5C3680022114652
:1053B0009A61C4686FF080436361C568541E6C6075
:1053C000C4686361C468094BA361C37803B9102141
:1053D000C06841F4872141F00811836941F440110C
:1053E0008B430B438361104630BD000000080080F2
:1053F000C0680021826842F001028260084670475E
:1054000038B5002421460094009A42F01002009220
:10541000009AC3681A61074AC06803690093491C6F
:10542000914202D8009BDB06F7D40320FFF717FD5B
:10543000204638BD400D030038B5002422460094B4
:10544000009B43F020030093009B61F38A130093B9
:105450000099C36819610749C06803690093521C29
:105460008A4202D8009B9B06F7D40320FFF7F7FC83
:10547000204638BD400D030000698068C0F341003C
:1054800028B1012801D0022803D002207047032050
:105490007047012070470269106861F301001060D5
:1054A0007047C068406910F0010F01D000207047BC
:1054B00001207047C06841698069084070470069F1
:1054C0008169C069084080B2704700698169C0691C
:1054D0000840000C704700EB8101496D8968006944
:1054E000406908407047034610B50020D21C92085E
:1054F000D3F8D03003E01C6841F8044B401C9042C4
:10550000F9D3084610BD000070B500220125C27015
:1055100040268570144613468680012901D061B16A
:1055200014E0C5720821017004214FF0A0424170BF
:105530009115C1800221017208E0C3720C21017033
:10554000062141701F4A4FF4A061C18002F500613D
:10555000C0E9032100210AE002EB411303F51066C4
:1055600000EB810503F53063AE61491C6B65437840
:105570008B42F1D802F5806141614031C0F8CC1016
:10558000002108E002EB411300EB810503F5A06365
:10559000491CC5F8903003788B42F3D8002108E00D
:1055A00002EB013300EB810503F58053491CC5F87C
:1055B000D03003788B42F3D802F56062C0F80C213A
:1055C000204670BD0000044010B5C0680024C268C9
:1055D000012922F0C04201D019B104E042F000528A
:1055E00001E042F08042C2603220FFF733FC2046E7
:1055F00010BD30B5C47800256CB900EB82000024E2
:10560000DB1C9B08D0F8D00003E051F8042B0260AB
:10561000641C9C42F9D3284630BD000000210120C3
:1056200006F08EFE0021022006F08AFE00210320F3
:1056300006F086FE0021042006F082FEBC2102A0B6
:1056400009F032FFFEE700002E2E5C48415244571D
:105650004152455C7372635C6E7669632E63000031
:10566000042822DD124A202802D021281DD10BE077
:10567000CB78086863F31F6010600879107148796F
:1056800050718879907110E0107808701088000AC5
:1056900048701068000C88701068000EC87010798F
:1056A0000871507948719079887100207047000026
:1056B000C40300202DE9FC41064600200D460446A7
:1056C000084F009009E0305D8DF8040000236A4621
:1056D00001A938680EF0F0FF641CAC42F3D300203F
:1056E000BDE8FC81C00300200B4910B58B790C4943
:1056F0000A4C072B0A6802D0082B02D002E000F007
:105700007F00A054521C0A60B2F5007F01D1002036
:105710000860002010BD0000C40300204086002067
:105720003003002000207047002070470FB4054B65
:1057300010B503A9044A029801F086F810BC5DF880
:1057400014FB000065910008140000200FB4084B02
:1057500010B504A902AA039801F076F8044602A93C
:10576000002001F008FC204610BC5DF814FB00008E
:10577000776F000803B401984100009850EAC120F7
:1057800018BF04204A0D18BF40F0010040F2FF721C
:10579000B2EB515F08BF40F00200012808BF0520AE
:1057A00002B0704710B52DED028BB0EE408A18EEB6
:1057B000100AFBF7A4F90446400010F1020F11D1C2
:1057C00018EE100AFBF7A0F800EE904A00EE100A5F
:1057D000F8EEE00AB4EE600AF1EE10FA1CBF012008
:1057E00000F06AFF2046BDEC028B10BD00000000F7
:1057F0002DE9F04D2DED040B2DED0E8B96B0DDE96E
:105800002550279CDDF890A025F0004624F00048A4
:10581000BAF1000F14BF0121002101EB4502FC4940
:1058200053184A1093422AD3002814BF012300239F
:1058300003EB44030B44F7498B4220D358EA0001A1
:105840009FEDF59B76D0DFF8D8B35D4503D1BAF173
:10585000000F05D188E0BAF1000F08BF002100D089
:10586000012101EB450111F5001F08D8002814BFE4
:105870000121002101EB440111F5001F0BD99DED21
:10588000261B9DED240B16B0BDEC0E8B04B0BDE8BD
:10589000F04D00F0C5BE0027002DBCBFE149884592
:1058A00021DAE1498845A8BF02271CDAC3451ADC82
:1058B000DE4901EB2851142908DDC1F1340220FA38
:1058C00002F101FA02F282420DD108E058B9C1F1A9
:1058D000140228FA02F101FA02F2424503D101F062
:1058E0000101C1F1020756EA0A0124D1002C22DA93
:1058F000002D18BF022F01D0012F0AD0022000F086
:10590000DBFE16B0BDEC0E8B04B0BDE8F04D00F030
:105910006FBE022000F0D0FE00F06AFE51EC100BCA
:1059200081F0004141EC100B16B0BDEC0E8B04B0C1
:10593000BDE8F08D18E09FEDBEAB9FEDBF8B00285A
:1059400071D1B848804522D105F1804010F5801012
:1059500008BFBAF1000F07D0B3450ADC002CA8BF7E
:105960009DED260BE0DA0DE0B0EE490AF0EE690A93
:10597000DAE7002C06DA9DED260B51EC100B81F0D6
:1059800000416FE0AE48784490ED000BCCE7D8457D
:105990004DD1002C48DA2EB186423AD1BAF1000F2F
:1059A00042D126E0BAF1000F13D0022000F084FEAD
:1059B00000F052FE8DED020B9DED240B8DED000BE2
:1059C00010EE900A039961F31E0003909DED020B07
:1059D000AAE78DED02AB9DED240B1AEE901A10EEA6
:1059E000900A8DED000B61F31E0003909DED020BFC
:1059F0009AE78DED028B9DED240B18EE901A10EEB8
:105A0000900A8DED000B61F31E0003909DED020BDB
:105A10008AE709DA9DED240B51EC190B53EC102B9E
:105A2000FAF700FE1EE020E09DED240B7CE78642A5
:105A30001BDAB4F1804F0DD0A4F10050B0F1FF504B
:105A400013D1002D11DB9DED240B51EC100B09F04F
:105A5000B7FB07E09DED240B53EC102B51EC100B22
:105A600000F0C2BC41EC100B5EE79DED240B51EC45
:105A7000100B03F06BFBBAF1000FCDE90E0142D120
:105A80009FED710B46B3A6F1E040B0F17F600CD002
:105A90005E4538D1002D00DAA7B3022F0CBF0120DC
:105AA0004FF0FF30FAF72DFEDCE7002D01DD002C72
:105AB0000DDA002D01DD002C1FDB002D16DA002C85
:105AC00014DB012F08BF9FED620B3FF42DAFB0EE4A
:105AD0004A0AF0EE6A0A27E7022F18BF002D0CD001
